{
    "contractName": "Auction",
    "abi": [
        {
            "inputs": [],
            "stateMutability": "nonpayable",
            "type": "constructor"
        },
        {
            "inputs": [],
            "name": "auctionEnd",
            "outputs": [],
            "stateMutability": "nonpayable",
            "type": "function"
        },
        {
            "inputs": [],
            "name": "beneficiary",
            "outputs": [
                {
                    "internalType": "address payable",
                    "name": "",
                    "type": "address"
                }
            ],
            "stateMutability": "view",
            "type": "function"
        },
        {
            "inputs": [],
            "name": "bid",
            "outputs": [],
            "stateMutability": "payable",
            "type": "function"
        },
        {
            "inputs": [],
            "name": "highestBid",
            "outputs": [
                {
                    "internalType": "uint256",
                    "name": "",
                    "type": "uint256"
                }
            ],
            "stateMutability": "view",
            "type": "function"
        },
        {
            "inputs": [],
            "name": "highestBidder",
            "outputs": [
                {
                    "internalType": "address",
                    "name": "",
                    "type": "address"
                }
            ],
            "stateMutability": "view",
            "type": "function"
        },
        {
            "inputs": [],
            "name": "withdraw",
            "outputs": [
                {
                    "internalType": "bool",
                    "name": "",
                    "type": "bool"
                }
            ],
            "stateMutability": "nonpayable",
            "type": "function"
        }
    ],
    "bytecode": "608060405234801561001057600080fd5b50600080546001600160a01b03191633179055610170806100326000396000f3fe6080604052600436106100555760003560e01c80631998aeef1461005a5780632a24f46c1461006457806338af3eed146100795780633ccfd60b146100aa57806391f90157146100d3578063d57bde79146100e8575b600080fd5b61006261010f565b005b34801561007057600080fd5b5061006261010f565b34801561008557600080fd5b5061008e610111565b604080516001600160a01b039092168252519081900360200190f35b3480156100b657600080fd5b506100bf610120565b604080519115158252519081900360200190f35b3480156100df57600080fd5b5061008e610125565b3480156100f457600080fd5b506100fd610134565b60408051918252519081900360200190f35b565b6000546001600160a01b031681565b600090565b6001546001600160a01b031681565b6002548156fea26469706673582212207dd97be89ba991432b614c471be965d6d3ec1b2838e219056b468c33468f461864736f6c63430006010033",
    "sourcePath": "c:/Users/prasi/OneDrive/Desktop/Vejay/Spring 2020/BlockChain/hw/HW1/hw1-source/hw1-source/contracts/Auction.sol",
    "compiler": {
        "name": "solc",
        "version": "0.6.1+commit.e6f7d5a4"
    },
    "functionHashes": {
        "auctionEnd()": "2a24f46c",
        "beneficiary()": "38af3eed",
        "bid()": "1998aeef",
        "highestBid()": "d57bde79",
        "highestBidder()": "91f90157",
        "withdraw()": "3ccfd60b"
    },
    "gasEstimates": {
        "creation": {
            "codeDepositCost": "73600",
            "executionCost": "20958",
            "totalCost": "94558"
        },
        "external": {
            "auctionEnd()": "144",
            "beneficiary()": "1059",
            "bid()": "98",
            "highestBid()": "1086",
            "highestBidder()": "1103",
            "withdraw()": "248"
        }
    }
}