{
    "contractName": "Migrations",
    "abi": [
        {
            "inputs": [],
            "stateMutability": "nonpayable",
            "type": "constructor"
        },
        {
            "inputs": [],
            "name": "last_completed_migration",
            "outputs": [
                {
                    "internalType": "uint256",
                    "name": "",
                    "type": "uint256"
                }
            ],
            "stateMutability": "view",
            "type": "function"
        },
        {
            "inputs": [],
            "name": "owner",
            "outputs": [
                {
                    "internalType": "address",
                    "name": "",
                    "type": "address"
                }
            ],
            "stateMutability": "view",
            "type": "function"
        },
        {
            "inputs": [
                {
                    "internalType": "uint256",
                    "name": "completed",
                    "type": "uint256"
                }
            ],
            "name": "setCompleted",
            "outputs": [],
            "stateMutability": "nonpayable",
            "type": "function"
        }
    ],
    "bytecode": "608060405234801561001057600080fd5b50600080546001600160a01b0319163317905560fd806100316000396000f3fe6080604052348015600f57600080fd5b5060043610603c5760003560e01c8063445df0ac1460415780638da5cb5b146059578063fdacd57614607b575b600080fd5b60476097565b60408051918252519081900360200190f35b605f609d565b604080516001600160a01b039092168252519081900360200190f35b609560048036036020811015608f57600080fd5b503560ac565b005b60015481565b6000546001600160a01b031681565b6000546001600160a01b031633141560c45760018190555b5056fea2646970667358221220831cac95a6cddd101c91dea1ded0eb03b6b70767cd865d34c26be1b87543fa9764736f6c63430006010033",
    "sourcePath": "c:/Users/prasi/OneDrive/Desktop/Vejay/Spring 2020/BlockChain/hw/HW1/hw1-source/hw1-source/contracts/Migrations.sol",
    "compiler": {
        "name": "solc",
        "version": "0.6.1+commit.e6f7d5a4"
    },
    "functionHashes": {
        "last_completed_migration()": "445df0ac",
        "owner()": "8da5cb5b",
        "setCompleted(uint256)": "fdacd576"
    },
    "gasEstimates": {
        "creation": {
            "codeDepositCost": "50600",
            "executionCost": "20934",
            "totalCost": "71534"
        },
        "external": {
            "last_completed_migration()": "976",
            "owner()": "1037",
            "setCompleted(uint256)": "21062"
        }
    }
}