{
  "contractName": "Auction",
  "abi": [
    {
      "inputs": [],
      "payable": false,
      "stateMutability": "nonpayable",
      "type": "constructor"
    },
    {
      "constant": true,
      "inputs": [],
      "name": "beneficiary",
      "outputs": [
        {
          "internalType": "address payable",
          "name": "",
          "type": "address"
        }
      ],
      "payable": false,
      "stateMutability": "view",
      "type": "function"
    },
    {
      "constant": true,
      "inputs": [],
      "name": "highestBid",
      "outputs": [
        {
          "internalType": "uint256",
          "name": "",
          "type": "uint256"
        }
      ],
      "payable": false,
      "stateMutability": "view",
      "type": "function"
    },
    {
      "constant": true,
      "inputs": [],
      "name": "highestBidder",
      "outputs": [
        {
          "internalType": "address",
          "name": "",
          "type": "address"
        }
      ],
      "payable": false,
      "stateMutability": "view",
      "type": "function"
    },
    {
      "constant": false,
      "inputs": [],
      "name": "bid",
      "outputs": [],
      "payable": true,
      "stateMutability": "payable",
      "type": "function"
    },
    {
      "constant": false,
      "inputs": [],
      "name": "withdraw",
      "outputs": [
        {
          "internalType": "bool",
          "name": "",
          "type": "bool"
        }
      ],
      "payable": false,
      "stateMutability": "nonpayable",
      "type": "function"
    },
    {
      "constant": false,
      "inputs": [],
      "name": "auctionEnd",
      "outputs": [],
      "payable": false,
      "stateMutability": "nonpayable",
      "type": "function"
    }
  ],
  "bytecode": "0x608060405234801561001057600080fd5b50336000806101000a81548173ffffffffffffffffffffffffffffffffffffffff021916908373ffffffffffffffffffffffffffffffffffffffff1602179055506107de806100606000396000f3fe6080604052600436106100555760003560e01c80631998aeef1461005a5780632a24f46c1461006457806338af3eed1461007b5780633ccfd60b146100d257806391f9015714610101578063d57bde7914610158575b600080fd5b610062610183565b005b34801561007057600080fd5b50610079610324565b005b34801561008757600080fd5b506100906104b6565b604051808273ffffffffffffffffffffffffffffffffffffffff1673ffffffffffffffffffffffffffffffffffffffff16815260200191505060405180910390f35b3480156100de57600080fd5b506100e76104db565b604051808215151515815260200191505060405180910390f35b34801561010d57600080fd5b50610116610673565b604051808273ffffffffffffffffffffffffffffffffffffffff1673ffffffffffffffffffffffffffffffffffffffff16815260200191505060405180910390f35b34801561016457600080fd5b5061016d610699565b6040518082815260200191505060405180910390f35b600360009054906101000a900460ff16156101e9576040517f08c379a00000000000000000000000000000000000000000000000000000000081526004018080602001828103825260368152602001806106d06036913960400191505060405180910390fd5b6002543411610243576040517f08c379a00000000000000000000000000000000000000000000000000000000081526004018080602001828103825260488152602001806107626048913960600191505060405180910390fd5b6001600360016101000a81548160ff0219169083151502179055506000600254146102da5760025460046000600160009054906101000a900473ffffffffffffffffffffffffffffffffffffffff1673ffffffffffffffffffffffffffffffffffffffff1673ffffffffffffffffffffffffffffffffffffffff168152602001908152602001600020600082825401925050819055505b33600160006101000a81548173ffffffffffffffffffffffffffffffffffffffff021916908373ffffffffffffffffffffffffffffffffffffffff16021790555034600281905550565b600360009054906101000a900460ff161561038a576040517f08c379a00000000000000000000000000000000000000000000000000000000081526004018080602001828103825260378152602001806107066037913960400191505060405180910390fd5b3373ffffffffffffffffffffffffffffffffffffffff166000809054906101000a900473ffffffffffffffffffffffffffffffffffffffff1673ffffffffffffffffffffffffffffffffffffffff161461042f576040517f08c379a000000000000000000000000000000000000000000000000000000000815260040180806020018281038252602581526020018061073d6025913960400191505060405180910390fd5b6001600360006101000a81548160ff0219169083151502179055506000809054906101000a900473ffffffffffffffffffffffffffffffffffffffff1673ffffffffffffffffffffffffffffffffffffffff166108fc6002549081150290604051600060405180830381858888f193505050501580156104b3573d6000803e3d6000fd5b50565b6000809054906101000a900473ffffffffffffffffffffffffffffffffffffffff1681565b6000600360019054906101000a900460ff16610542576040517f08c379a00000000000000000000000000000000000000000000000000000000081526004018080602001828103825260308152602001806106a06030913960400191505060405180910390fd5b60003390506000600460008373ffffffffffffffffffffffffffffffffffffffff1673ffffffffffffffffffffffffffffffffffffffff1681526020019081526020016000205490506000811115610669576000600460008473ffffffffffffffffffffffffffffffffffffffff1673ffffffffffffffffffffffffffffffffffffffff1681526020019081526020016000208190555060008273ffffffffffffffffffffffffffffffffffffffff166108fc839081150290604051600060405180830381858888f193505050509050806106675781600460008573ffffffffffffffffffffffffffffffffffffffff1673ffffffffffffffffffffffffffffffffffffffff1681526020019081526020016000208190555060009350505050610670565b505b6001925050505b90565b600160009054906101000a900473ffffffffffffffffffffffffffffffffffffffff1681565b6002548156fe596f752063616e6e6f74207573652077697468647261772c206265666f726520626964732061726520706c616365642041756374696f6e2068617320656e6465642c204e657720626964732063616e6e6f742062652063616c6c65642e5468616e6b20796f7541756374696f6e2068617320656e6465642c2061756374696f6e456e6428292068617320616c7265616479206265656e2063616c6c65644f6e6c79202062656e65666963696172792063616e20656e64207468652061756374696f6e596f7520617265206e6f74207468652048696768657374204269646465722c20546865726520697320616c726561647920486967657374204269646465722e20426964204d6f7265a265627a7a72315820c1b3b3b4ddc766cb593c41cf67cadfd78842483f4dc1fda2b1cace0df8863d1664736f6c63430005100032",
  "source": "pragma solidity >0.5.0;\n\ncontract Auction {\n   \n    address payable public beneficiary;\n\n    // Current state of the auction. You can create more variables if needed\n    address public highestBidder;\n    uint public highestBid;\n    bool endOfAuction;\n    bool bidFlag;\n    // Allowed withdrawals of previous bids\n    mapping(address => uint) pendingReturns;\n\n    // Constructor\n    constructor() public {\n        beneficiary = msg.sender;\n    }\n\n    /// Bid on the auction with the value sent\n    /// together with this transaction.\n    /// The value will only be refunded if the\n    /// auction is not won.\n    \n    function bid() public payable {\n        \n\n        require(!endOfAuction, \"Auction has ended, New bids cannot be called.Thank you\");\n        require(\n           msg.value > highestBid,\n           \"You are not the Highest Bidder, There is already Higest Bidder. Bid More\"\n        );\n        bidFlag = true;\n\n\n        // TODO If the bid is not higher than highestBid, send the\n        // money back. Use \"require\"\n        \n        // TODO update state\n\n        // TODO store the previously highest bid in pendingReturns. That bidder\n        // will need to trigger withdraw() to get the money back.\n        // For example, A bids 5 ETH. Then, B bids 6 ETH and becomes the highest bidder. \n        // Store A and 5 ETH in pendingReturns. \n        // A will need to trigger withdraw() later to get that 5 ETH back.\n        if (highestBid != 0) {\n\n            pendingReturns[highestBidder] += highestBid;\n        }\n        highestBidder = msg.sender;\n        highestBid = msg.value;\n\n        // Sending back the money by simply using\n        // highestBidder.send(highestBid) is a security risk\n        // because it could execute an untrusted contract.\n        // It is always safer to let the recipients\n        // withdraw their money themselves. \n        \n    }\n\n    /// Withdraw a bid that was overbid.\n    function withdraw() public returns (bool) {\n    // TODO send back the amount in pendingReturns to the sender. Try to avoid the reentrancy attack. Return false if there is an error when sending\n    \n         require(bidFlag, \"You cannot use withdraw, before bids are placed \");\n        address payable withdrawAccount = msg.sender;\n        uint bidAmount = pendingReturns[withdrawAccount];\n        if (bidAmount > 0) {\n         pendingReturns[withdrawAccount] = 0;\n\n         bool retAmountBol = withdrawAccount.send(bidAmount);\n         \n         if (!(retAmountBol)) {\n\n                pendingReturns[withdrawAccount] = bidAmount;\n              \n                return false;\n            }\n        }\n        return true;\n\n        }\n\n    /// End the auction and send the highest bid\n    /// to the beneficiary.\n    function auctionEnd() public {\n        \n\n        // TODO send money to the beneficiary account. Make sure that it can't call this auctionEnd() multiple times to drain money\n        require(!endOfAuction, \"Auction has ended, auctionEnd() has already been called\");\n\n       // TODO make sure that only the beneficiary can trigger this function. Use \"require\"\n        require(beneficiary == msg.sender, \"Only  beneficiary can end the auction\");\n\n\n        endOfAuction = true;\n      \n        beneficiary.transfer(highestBid);\n        \n\n        \n    }\n}\n",
  "sourcePath": "C:\\Users\\prasi\\OneDrive\\Desktop\\Vejay\\Spring 2020\\BlockChain\\hw\\HW1\\hw1-source\\hw1-source\\contracts\\Auction.sol",
  "compiler": {
    "name": "solc",
    "version": "0.5.16+commit.9c3226ce.Emscripten.clang"
  },
  "schemaVersion": "3.0.23",
  "updatedAt": "2020-02-25T01:57:00.027Z",
  "networkType": "ethereum",
  "devdoc": {
    "methods": {}
  },
  "userdoc": {
    "methods": {
      "auctionEnd()": {
        "notice": "End the auction and send the highest bid to the beneficiary."
      },
      "bid()": {
        "notice": "Bid on the auction with the value sent together with this transaction. The value will only be refunded if the auction is not won."
      },
      "withdraw()": {
        "notice": "Withdraw a bid that was overbid."
      }
    }
  }
}